{
  "contractName": "Admin",
  "abi": [
    {
      "inputs": [],
      "stateMutability": "nonpayable",
      "type": "constructor"
    },
    {
      "inputs": [],
      "name": "greet",
      "outputs": [
        {
          "internalType": "string",
          "name": "",
          "type": "string"
        }
      ],
      "stateMutability": "view",
      "type": "function"
    },
    {
      "inputs": [],
      "name": "sayHello",
      "outputs": [
        {
          "internalType": "string",
          "name": "",
          "type": "string"
        }
      ],
      "stateMutability": "view",
      "type": "function"
    },
    {
      "inputs": [],
      "name": "runTheWorld",
      "outputs": [
        {
          "internalType": "bool",
          "name": "",
          "type": "bool"
        }
      ],
      "stateMutability": "view",
      "type": "function"
    }
  ],
  "bytecode": "0x60806040526040518060400160405280600c81526020017f48656c6c6f20576f726c64210000000000000000000000000000000000000000815250600090816200004a91906200031a565b503480156200005857600080fd5b5033600160006101000a81548173ffffffffffffffffffffffffffffffffffffffff021916908373ffffffffffffffffffffffffffffffffffffffff16021790555062000401565b600081519050919050565b7f4e487b7100000000000000000000000000000000000000000000000000000000600052604160045260246000fd5b7f4e487b7100000000000000000000000000000000000000000000000000000000600052602260045260246000fd5b600060028204905060018216806200012257607f821691505b602082108103620001385762000137620000da565b5b50919050565b60008190508160005260206000209050919050565b60006020601f8301049050919050565b600082821b905092915050565b600060088302620001a27fffffffffffffffffffffffffffffffffffffffffffffffffffffffffffffffff8262000163565b620001ae868362000163565b95508019841693508086168417925050509392505050565b6000819050919050565b6000819050919050565b6000620001fb620001f5620001ef84620001c6565b620001d0565b620001c6565b9050919050565b6000819050919050565b6200021783620001da565b6200022f620002268262000202565b84845462000170565b825550505050565b600090565b6200024662000237565b620002538184846200020c565b505050565b5b818110156200027b576200026f6000826200023c565b60018101905062000259565b5050565b601f821115620002ca5762000294816200013e565b6200029f8462000153565b81016020851015620002af578190505b620002c7620002be8562000153565b83018262000258565b50505b505050565b600082821c905092915050565b6000620002ef60001984600802620002cf565b1980831691505092915050565b60006200030a8383620002dc565b9150826002028217905092915050565b6200032582620000a0565b67ffffffffffffffff811115620003415762000340620000ab565b5b6200034d825462000109565b6200035a8282856200027f565b600060209050601f8311600181146200039257600084156200037d578287015190505b620003898582620002fc565b865550620003f9565b601f198416620003a2866200013e565b60005b82811015620003cc57848901518255600182019150602085019450602081019050620003a5565b86831015620003ec5784890151620003e8601f891682620002dc565b8355505b6001600288020188555050505b505050505050565b6104d380620004116000396000f3fe608060405234801561001057600080fd5b50600436106100415760003560e01c80636903fe8814610046578063cfae321714610064578063ef5fb05b14610082575b600080fd5b61004e6100a0565b60405161005b9190610304565b60405180910390f35b61006c610139565b60405161007991906103af565b60405180910390f35b61008a6101c7565b60405161009791906103af565b60405180910390f35b60003373ffffffffffffffffffffffffffffffffffffffff16600160009054906101000a900473ffffffffffffffffffffffffffffffffffffffff1673ffffffffffffffffffffffffffffffffffffffff1614610132576040517f08c379a00000000000000000000000000000000000000000000000000000000081526004016101299061041d565b60405180910390fd5b6001905090565b600080546101469061046c565b80601f01602080910402602001604051908101604052809291908181526020018280546101729061046c565b80156101bf5780601f10610194576101008083540402835291602001916101bf565b820191906000526020600020905b8154815290600101906020018083116101a257829003601f168201915b505050505081565b60603373ffffffffffffffffffffffffffffffffffffffff16600160009054906101000a900473ffffffffffffffffffffffffffffffffffffffff1673ffffffffffffffffffffffffffffffffffffffff1614610259576040517f08c379a00000000000000000000000000000000000000000000000000000000081526004016102509061041d565b60405180910390fd5b600080546102669061046c565b80601f01602080910402602001604051908101604052809291908181526020018280546102929061046c565b80156102df5780601f106102b4576101008083540402835291602001916102df565b820191906000526020600020905b8154815290600101906020018083116102c257829003601f168201915b5050505050905090565b60008115159050919050565b6102fe816102e9565b82525050565b600060208201905061031960008301846102f5565b92915050565b600081519050919050565b600082825260208201905092915050565b60005b8381101561035957808201518184015260208101905061033e565b60008484015250505050565b6000601f19601f8301169050919050565b60006103818261031f565b61038b818561032a565b935061039b81856020860161033b565b6103a481610365565b840191505092915050565b600060208201905081810360008301526103c98184610376565b905092915050565b7f4a757374207468652061646d696e206164647265737320726571756972656400600082015250565b6000610407601f8361032a565b9150610412826103d1565b602082019050919050565b60006020820190508181036000830152610436816103fa565b9050919050565b7f4e487b7100000000000000000000000000000000000000000000000000000000600052602260045260246000fd5b6000600282049050600182168061048457607f821691505b6020821081036104975761049661043d565b5b5091905056fea2646970667358221220944997b2325e718e614c0a6a17d105f1502120aaa5fb6e7d28fd587bf95cd58c64736f6c63430008110033",
  "immutableReferences": {},
  "source": "// SPDX-License-Identifier: MIT\n// compiler version must be greater than or equal to 0.8.17 and less than 0.9.0\npragma solidity ^0.8.17;\n\ncontract Admin {\n    string public greet = \"Hello World!\";\n    address private admin;\n\n    constructor(){\n        admin = msg.sender;\n    }\n\n    modifier onlyAdmin {\n        require( admin == msg.sender, \"Just the admin address required\" );\n        _;\n    }\n\n    function sayHello() public view onlyAdmin returns (string memory) {\n        return greet;\n    }\n\n    function runTheWorld() public view onlyAdmin returns (bool) {\n        return true;\n    }\n}\n",
  "sourcePath": "/home/nyambura00/Desktop/Solidity Devt/HelloModifiers/contracts/HelloModifiers.sol",
  "compiler": {
    "name": "solc",
    "version": "0.8.17+commit.8df45f5f.Emscripten.clang"
  },
  "schemaVersion": "3.4.10",
  "updatedAt": "2023-01-16T21:54:02.843Z",
  "devdoc": {
    "kind": "dev",
    "methods": {},
    "version": 1
  },
  "userdoc": {
    "kind": "user",
    "methods": {},
    "version": 1
  }
}